:100000000C943F000C945C000C945C000C945C001D
:100010000C945C000C945C000C945C000C945C00F0
:100020000C945C000C945C000C945C000C945C00E0
:100030000C945C000C945C000C945C000C945C00D0
:100040000C945C000C945C000C945C000C945C00C0
:100050000C945C000C945C000C945C000C945C00B0
:100060000C945C000C945C000C945C000C945C00A0
:1000700044414E45207A20494F3A00200000112487
:100080001FBECFEFD4E0DEBFCDBF11E0A0E0B1E0F6
:10009000E4ECF3E002C005900D92A030B107D9F76F
:1000A00011E0A0E0B1E001C01D92A030B107E1F77E
:1000B0000E945E000C94E0010C940000E1E6F0E088
:1000C00080E8808381E0808383E088BB87EC82BB0B
:1000D0008CE381BB82EF87BB0E94390180E790E00F
:1000E0000E946D0180EC0E9423010E94A90080E91A
:1000F00090E00E94C20083E090E00E94C2000E9453
:10010000B600CBE7D0E080EC0E9423010E94A9005A
:1001100081E990E00E94C20080E090E00E94E3004C
:100120000E947F01CE010E946D010E94B600EBCFBC
:10013000882339F024E630E000002A95E9F7815061
:10014000D9F708958BE090E0A0E0B0E08A95F1F750
:100150000895B898C09A0E94A200C19A0E94A20075
:10016000C098B89A0E94A200C1980895C098B89A01
:100170000E94A200C19A0E94A200B898C09A0E9450
:10018000A2000895CF93DF93D82FC8E0DD231CF49D
:10019000B898C09A02C0C098B89ADD0F0E94A20019
:1001A000C19A0E94A200C198C15081F7B898C09A24
:1001B0000E94A200C19A0E94A20086B3C1988170D9
:1001C000DF91CF9108951F93CF93DF93182FB898A5
:1001D000C09AD8E0C0E00E94A200C19A0E94A2008A
:1001E000CC0F86B380FDCF5FC198D150A1F71130FD
:1001F00019F4C098B89A02C0B898C09A0E94A20098
:10020000C19A0E94A200C1988C2FDF91CF911F91BB
:1002100008958295807F98B39F70892B88BB949AAC
:10022000000094980895CF93C82F82958F700E94F4
:1002300009018C2F0E94090188E790E000008A954F
:10024000E9F7CF91089592980E9413010895929A28
:100250000E941301089581E00E94230180E30E941F
:100260009800089582E00E94230180E30E94980094
:10027000089586E90E949800929880E30E940901FF
:1002800089E20E94980080E30E94090182E00E94B6
:10029000980080E20E94090182E00E94980088E2B2
:1002A0000E94230188E00E9423010E942B0186E026
:1002B0000E9423018CE00E9423010895CF93DF93D5
:1002C000EC018881882331F021960E9427018991D1
:1002D0008823D9F7DF91CF910895CF93DF93EC0175
:1002E000FC018491882341F021960E942701FE01A0
:1002F000219684918823C9F7DF91CF910895CF93F8
:10030000DF93CDB7DEB727970FB6F894DEBF0FBEE9
:10031000CDBFBE016F5F7F4F4AE050E00E949B015E
:100320000E945E0127960FB6F894DEBF0FBECDBFC8
:10033000DF91CF910895FB019F01E8944230C4F012
:100340004532B4F44A3029F497FB1EF49095819518
:100350009F4F642F77270E94CC01805D8A330CF079
:10036000895D8193CB010097A1F716F45DE251936B
:100370001082C9010C94BC01DC01FC01672F719152
:100380007723E1F7329704C07C916D93708362917B
:10039000AE17BF07C8F30895AA1BBB1B51E107C0E6
:1003A000AA1FBB1FA617B70710F0A61BB70B881F05
:1003B000991F5A95A9F780959095BC01CD01089594
:0403C000F894FFCFDF
:00000001FF
